{"abi":[{"type":"constructor","inputs":[{"name":"secret","type":"uint256","internalType":"uint256"}],"stateMutability":"nonpayable"},{"type":"function","name":"sign","inputs":[{"name":"message","type":"bytes","internalType":"bytes"},{"name":"nonce","type":"uint256","internalType":"uint256"}],"outputs":[{"name":"","type":"uint256","internalType":"uint256"},{"name":"","type":"uint256","internalType":"uint256"}],"stateMutability":"view"},{"type":"function","name":"signPrehashed","inputs":[{"name":"hash","type":"uint256","internalType":"uint256"},{"name":"nonce","type":"uint256","internalType":"uint256"}],"outputs":[{"name":"","type":"uint256","internalType":"uint256"},{"name":"","type":"uint256","internalType":"uint256"}],"stateMutability":"view"},{"type":"function","name":"xCoord","inputs":[],"outputs":[{"name":"","type":"uint256","internalType":"uint256"}],"stateMutability":"view"},{"type":"function","name":"yParity","inputs":[],"outputs":[{"name":"","type":"uint8","internalType":"uint8"}],"stateMutability":"view"}],"bytecode":{"object":"0x608060405234801562000010575f80fd5b5060405162000ecb38038062000ecb83398101604081905262000033916200046f565b805f036200003f575f80fd5b5f8190556200004e816200005b565b60025560015550620004f1565b5f80620000aa7f79be667ef9dcbbac55a06295ce870b07029bfcdb2dce28d959f2815b16f817987f483ada7726a3c4655da4fbfc0e1108a8fd17b448a68554199c47d08ffb10d4b885620000b3565b91509150915091565b5f8080620000c58487876001620000fa565b91945092509050620000d7816200018c565b90506401000003d01981840992506401000003d019818309915050935093915050565b5f8080868686868480600186820362000124575f8060019950995099505050505050505062000182565b8615620001765760018716156200014d576200014583838389898962000203565b919450925090505b6200015a6002886200049b565b965062000169868686620003b5565b9197509550935062000124565b91985096509450505050505b9450945094915050565b5f8060016401000003d01984835b8115620001f857620001ad82846200049b565b9050836401000003d01980868409620001cd906401000003d019620004bb565b8708909550935081620001e18183620004d7565b620001ed9085620004bb565b90935091506200019a565b509295945050505050565b5f8080808080808c1580156200021757508b155b15620002305789898996509650965050505050620003a9565b891580156200023d575088155b1562000256578c8c8c96509650965050505050620003a9565b898d148015620002655750888c145b15620002c257620002798d8c8181620003d7565b90945092506200028e848460036001620003d7565b9094509250620002a284845f6001620003fb565b9094509250620002b78c8c60026001620003d7565b9092509050620002e9565b620002d089898e8e62000421565b9094509250620002e38a898f8e62000421565b90925090505b620002f7848484846200044c565b90945092506200030a84848181620003d7565b90975091506200031d87838f8e62000421565b90975091506200033087838c8b62000421565b9097509150620003438d8c898562000421565b90965090506200035686828686620003d7565b90965090506200036986828e8e62000421565b9096509050818114620003a0576401000003d01981880996506401000003d01982870995506401000003d0198183099450620003a4565b8194505b505050505b96509650969350505050565b5f8080620003c886868682828262000203565b91989097509095509350505050565b5f806401000003d0198487096401000003d0195b8487099097909650945050505050565b5f806401000003d019808686096401000003d0195b888609086401000003d019620003eb565b5f806401000003d01980866200043e876401000003d019620004bb565b096401000003d01962000410565b5f806401000003d0198387096401000003d0198587099097909650945050505050565b5f6020828403121562000480575f80fd5b5051919050565b634e487b7160e01b5f52601160045260245ffd5b5f82620004b657634e487b7160e01b5f52601260045260245ffd5b500490565b81810381811115620004d157620004d162000487565b92915050565b8082028115828204841417620004d157620004d162000487565b6109cc80620004ff5f395ff3fe608060405234801561000f575f80fd5b506004361061004a575f3560e01c80632fe803521461004e5780636e4e8f081461006457806393d2b7c21461007e578063afef5d33146100a6575b5f80fd5b6001546040519081526020015b60405180910390f35b61006c6100b9565b60405160ff909116815260200161005b565b61009161008c3660046107b9565b6100d8565b6040805192835260208301919091520161005b565b6100916100b4366004610806565b61013c565b5f600280546100c89190610900565b6100d390601b610940565b905090565b5f805f806100e58561015c565b915091505f6100f483836101b2565b90505f61010188836101ea565b90505f7ffffffffffffffffffffffffffffffffebaaedce6af48a03bbfd25e8cd0364141805f54840989089199919850909650505050505050565b5f8061015184805190602001205f1c846100d8565b915091509250929050565b5f806101a97f79be667ef9dcbbac55a06295ce870b07029bfcdb2dce28d959f2815b16f817987f483ada7726a3c4655da4fbfc0e1108a8fd17b448a68554199c47d08ffb10d4b88561026d565b91509150915091565b60408051602081018490529081018290525f906060015b604051602081830303815290604052805190602001205f1c90505b92915050565b5f816101f46100b9565b600154856040516020016101c9949392919060609490941b7fffffffffffffffffffffffffffffffffffffffff00000000000000000000000016845260f89290921b7fff000000000000000000000000000000000000000000000000000000000000001660148401526015830152603582015260550190565b5f805f61027d84878760016102e4565b9194509250905061028d8161036b565b90507ffffffffffffffffffffffffffffffffffffffffffffffffffffffffefffffc2f81840992507ffffffffffffffffffffffffffffffffffffffffffffffffffffffffefffffc2f818309915050935093915050565b5f8080868686868480600186820361030c575f80600199509950995050505050505050610361565b861561035557600187161561033157610329838383898989610426565b919450925090505b61033c600288610959565b9650610349868686610601565b9197509550935061030c565b91985096509450505050505b9450945094915050565b5f8060017ffffffffffffffffffffffffffffffffffffffffffffffffffffffffefffffc2f84835b811561041b576103a38284610959565b9050837ffffffffffffffffffffffffffffffffffffffffffffffffffffffffefffffc2f808684096103f5907ffffffffffffffffffffffffffffffffffffffffffffffffffffffffefffffc2f61096c565b8708909550935081610407818361097f565b610411908561096c565b9093509150610393565b509295945050505050565b5f8080808080808c15801561043957508b155b1561045057898989965096509650505050506105f5565b8915801561045c575088155b15610473578c8c8c965096509650505050506105f5565b898d1480156104815750888c145b156104d4576104928d8c8f8e610621565b90945092506104a5848460036001610621565b90945092506104b784845f6001610679565b90945092506104ca8c8c60026001610621565b90925090506104f7565b6104e089898e8e6106ec565b90945092506104f18a898f8e6106ec565b90925090505b61050384848484610762565b909450925061051484848181610621565b909750915061052587838f8e6106ec565b909750915061053687838c8b6106ec565b90975091506105478d8c89856106ec565b909650905061055886828686610621565b909650905061056986828e8e6106ec565b90965090508181146105ec577ffffffffffffffffffffffffffffffffffffffffffffffffffffffffefffffc2f81880996507ffffffffffffffffffffffffffffffffffffffffffffffffffffffffefffffc2f82870995507ffffffffffffffffffffffffffffffffffffffffffffffffffffffffefffffc2f81830994506105f0565b8194505b505050505b96509650969350505050565b5f805f610612868686898989610426565b91989097509095509350505050565b5f807ffffffffffffffffffffffffffffffffffffffffffffffffffffffffefffffc2f8487097ffffffffffffffffffffffffffffffffffffffffffffffffffffffffefffffc2f5b8487099097909650945050505050565b5f807ffffffffffffffffffffffffffffffffffffffffffffffffffffffffefffffc2f808686097ffffffffffffffffffffffffffffffffffffffffffffffffffffffffefffffc2f5b888609087ffffffffffffffffffffffffffffffffffffffffffffffffffffffffefffffc2f610669565b5f807ffffffffffffffffffffffffffffffffffffffffffffffffffffffffefffffc2f808661073b877ffffffffffffffffffffffffffffffffffffffffffffffffffffffffefffffc2f61096c565b097ffffffffffffffffffffffffffffffffffffffffffffffffffffffffefffffc2f6106c2565b5f807ffffffffffffffffffffffffffffffffffffffffffffffffffffffffefffffc2f8387097ffffffffffffffffffffffffffffffffffffffffffffffffffffffffefffffc2f8587099097909650945050505050565b5f80604083850312156107ca575f80fd5b50508035926020909101359150565b7f4e487b71000000000000000000000000000000000000000000000000000000005f52604160045260245ffd5b5f8060408385031215610817575f80fd5b823567ffffffffffffffff8082111561082e575f80fd5b818501915085601f830112610841575f80fd5b813581811115610853576108536107d9565b604051601f82017fffffffffffffffffffffffffffffffffffffffffffffffffffffffffffffffe0908116603f01168101908382118183101715610899576108996107d9565b816040528281528860208487010111156108b1575f80fd5b826020860160208301375f602093820184015298969091013596505050505050565b7f4e487b71000000000000000000000000000000000000000000000000000000005f52601260045260245ffd5b5f8261090e5761090e6108d3565b500690565b7f4e487b71000000000000000000000000000000000000000000000000000000005f52601160045260245ffd5b60ff81811683821601908111156101e4576101e4610913565b5f82610967576109676108d3565b500490565b818103818111156101e4576101e4610913565b80820281158282048414176101e4576101e461091356fea26469706673582212203a52bd8b82fc779e187d115fcc7a909f8b97e9211c8242912b6cd34274c6059564736f6c63430008180033","linkReferences":{}},"methodIdentifiers":{"sign(bytes,uint256)":"afef5d33","signPrehashed(uint256,uint256)":"93d2b7c2","xCoord()":"2fe80352","yParity()":"6e4e8f08"},"id":25}