{"abi":[{"type":"constructor","inputs":[{"name":"name","type":"string","internalType":"string"},{"name":"symbol","type":"string","internalType":"string"},{"name":"gatewayAddress","type":"address","internalType":"contract IGateway"},{"name":"recipient","type":"address","internalType":"contract MockERC20"},{"name":"recipientNetwork","type":"uint16","internalType":"uint16"},{"name":"holder","type":"address","internalType":"address"},{"name":"initialSupply","type":"uint256","internalType":"uint256"}],"stateMutability":"nonpayable"},{"type":"function","name":"DOMAIN_SEPARATOR","inputs":[],"outputs":[{"name":"","type":"bytes32","internalType":"bytes32"}],"stateMutability":"view"},{"type":"function","name":"allowance","inputs":[{"name":"","type":"address","internalType":"address"},{"name":"","type":"address","internalType":"address"}],"outputs":[{"name":"","type":"uint256","internalType":"uint256"}],"stateMutability":"view"},{"type":"function","name":"approve","inputs":[{"name":"spender","type":"address","internalType":"address"},{"name":"amount","type":"uint256","internalType":"uint256"}],"outputs":[{"name":"","type":"bool","internalType":"bool"}],"stateMutability":"nonpayable"},{"type":"function","name":"balanceOf","inputs":[{"name":"","type":"address","internalType":"address"}],"outputs":[{"name":"","type":"uint256","internalType":"uint256"}],"stateMutability":"view"},{"type":"function","name":"decimals","inputs":[],"outputs":[{"name":"","type":"uint8","internalType":"uint8"}],"stateMutability":"view"},{"type":"function","name":"name","inputs":[],"outputs":[{"name":"","type":"string","internalType":"string"}],"stateMutability":"view"},{"type":"function","name":"nonces","inputs":[{"name":"","type":"address","internalType":"address"}],"outputs":[{"name":"","type":"uint256","internalType":"uint256"}],"stateMutability":"view"},{"type":"function","name":"onGmpReceived","inputs":[{"name":"id","type":"bytes32","internalType":"bytes32"},{"name":"network","type":"uint128","internalType":"uint128"},{"name":"sender","type":"bytes32","internalType":"bytes32"},{"name":"data","type":"bytes","internalType":"bytes"}],"outputs":[{"name":"","type":"bytes32","internalType":"bytes32"}],"stateMutability":"payable"},{"type":"function","name":"permit","inputs":[{"name":"owner","type":"address","internalType":"address"},{"name":"spender","type":"address","internalType":"address"},{"name":"value","type":"uint256","internalType":"uint256"},{"name":"deadline","type":"uint256","internalType":"uint256"},{"name":"v","type":"uint8","internalType":"uint8"},{"name":"r","type":"bytes32","internalType":"bytes32"},{"name":"s","type":"bytes32","internalType":"bytes32"}],"outputs":[],"stateMutability":"nonpayable"},{"type":"function","name":"symbol","inputs":[],"outputs":[{"name":"","type":"string","internalType":"string"}],"stateMutability":"view"},{"type":"function","name":"teleport","inputs":[{"name":"to","type":"address","internalType":"address"},{"name":"amount","type":"uint256","internalType":"uint256"}],"outputs":[{"name":"","type":"bytes32","internalType":"bytes32"}],"stateMutability":"nonpayable"},{"type":"function","name":"totalSupply","inputs":[],"outputs":[{"name":"","type":"uint256","internalType":"uint256"}],"stateMutability":"view"},{"type":"function","name":"transfer","inputs":[{"name":"to","type":"address","internalType":"address"},{"name":"amount","type":"uint256","internalType":"uint256"}],"outputs":[{"name":"","type":"bool","internalType":"bool"}],"stateMutability":"nonpayable"},{"type":"function","name":"transferFrom","inputs":[{"name":"from","type":"address","internalType":"address"},{"name":"to","type":"address","internalType":"address"},{"name":"amount","type":"uint256","internalType":"uint256"}],"outputs":[{"name":"","type":"bool","internalType":"bool"}],"stateMutability":"nonpayable"},{"type":"event","name":"Approval","inputs":[{"name":"owner","type":"address","indexed":true,"internalType":"address"},{"name":"spender","type":"address","indexed":true,"internalType":"address"},{"name":"amount","type":"uint256","indexed":false,"internalType":"uint256"}],"anonymous":false},{"type":"event","name":"Transfer","inputs":[{"name":"from","type":"address","indexed":true,"internalType":"address"},{"name":"to","type":"address","indexed":true,"internalType":"address"},{"name":"amount","type":"uint256","indexed":false,"internalType":"uint256"}],"anonymous":false}],"bytecode":{"object":"0x61014060405234801562000011575f80fd5b506040516200190d3803806200190d83398101604081905262000034916200029d565b8686600a5f620000458482620003eb565b506001620000548382620003eb565b5060ff81166080524660a0526200006a620000ad565b60c0525050506001600160a01b0380861660e05284166101005261ffff8316610120528015620000a057620000a0828262000147565b5050505050505062000557565b5f7f8b73c3c69bb8fe3d512ecc4cf759cc79239f7b179b0ffacaa9a75d522b39400f5f604051620000df9190620004b7565b6040805191829003822060208301939093528101919091527fc89efdaa54c0f20c7adf612882df0950f5a951637e0307cdcb4c672f298b8bc660608201524660808201523060a082015260c00160405160208183030381529060405280519060200120905090565b8060025f8282546200015a919062000531565b90915550506001600160a01b0382165f818152600360209081526040808320805486019055518481527fddf252ad1be2c89b69c2b068fc378daa952ba7f163c4a11628f55a4df523b3ef910160405180910390a35050565b634e487b7160e01b5f52604160045260245ffd5b5f82601f830112620001d6575f80fd5b81516001600160401b0380821115620001f357620001f3620001b2565b604051601f8301601f19908116603f011681019082821181831017156200021e576200021e620001b2565b81604052838152602092508660208588010111156200023b575f80fd5b5f91505b838210156200025e57858201830151818301840152908201906200023f565b5f602085830101528094505050505092915050565b6001600160a01b038116811462000288575f80fd5b50565b8051620002988162000273565b919050565b5f805f805f805f60e0888a031215620002b4575f80fd5b87516001600160401b0380821115620002cb575f80fd5b620002d98b838c01620001c6565b985060208a0151915080821115620002ef575f80fd5b50620002fe8a828b01620001c6565b9650506040880151620003118162000273565b6060890151909550620003248162000273565b608089015190945061ffff811681146200033c575f80fd5b92506200034c60a089016200028b565b915060c0880151905092959891949750929550565b600181811c908216806200037657607f821691505b6020821081036200039557634e487b7160e01b5f52602260045260245ffd5b50919050565b601f821115620003e657805f5260205f20601f840160051c81016020851015620003c25750805b601f840160051c820191505b81811015620003e3575f8155600101620003ce565b50505b505050565b81516001600160401b03811115620004075762000407620001b2565b6200041f8162000418845462000361565b846200039b565b602080601f83116001811462000455575f84156200043d5750858301515b5f19600386901b1c1916600185901b178555620004af565b5f85815260208120601f198616915b82811015620004855788860151825594840194600190910190840162000464565b5085821015620004a357878501515f19600388901b60f8161c191681555b505060018460011b0185555b505050505050565b5f808354620004c68162000361565b60018281168015620004e15760018114620004f75762000525565b60ff198416875282151583028701945062000525565b875f526020805f205f5b858110156200051c5781548a82015290840190820162000501565b50505082870194505b50929695505050505050565b808201808211156200055157634e487b7160e01b5f52601160045260245ffd5b92915050565b60805160a05160c05160e0516101005161012051611359620005b45f395f81816103ac015261060a01525f818161044b01526105e801525f81816102f801526105bb01525f6108fe01525f6108c901525f6101b701526113595ff3fe6080604052600436106100d9575f3560e01c80633644e5151161007c57806395d89b411161005757806395d89b4114610255578063a9059cbb14610269578063d505accf14610288578063dd62ed3e146102a9575f80fd5b80633644e515146101eb57806370a08231146101ff5780637ecebe001461022a575f80fd5b8063095ea7b3116100b7578063095ea7b31461014357806318160ddd1461017257806323b872dd14610187578063313ce567146101a6575f80fd5b806301900937146100dd57806304ddf0a51461010357806306fdde0314610122575b5f80fd5b6100f06100eb366004610e64565b6102df565b6040519081526020015b60405180910390f35b34801561010e575f80fd5b506100f061011d366004610f2e565b61052c565b34801561012d575f80fd5b50610136610683565b6040516100fa9190610fb7565b34801561014e575f80fd5b5061016261015d366004610f2e565b61070e565b60405190151581526020016100fa565b34801561017d575f80fd5b506100f060025481565b348015610192575f80fd5b506101626101a1366004610fd0565b610786565b3480156101b1575f80fd5b506101d97f000000000000000000000000000000000000000000000000000000000000000081565b60405160ff90911681526020016100fa565b3480156101f6575f80fd5b506100f06108c6565b34801561020a575f80fd5b506100f0610219366004611009565b60036020525f908152604090205481565b348015610235575f80fd5b506100f0610244366004611009565b60056020525f908152604090205481565b348015610260575f80fd5b50610136610920565b348015610274575f80fd5b50610162610283366004610f2e565b61092d565b348015610293575f80fd5b506102a76102a2366004611022565b6109b0565b005b3480156102b4575f80fd5b506100f06102c336600461108f565b600460209081525f928352604080842090915290825290205481565b5f3373ffffffffffffffffffffffffffffffffffffffff7f000000000000000000000000000000000000000000000000000000000000000016146103aa576040517f08c379a000000000000000000000000000000000000000000000000000000000815260206004820152603360248201527f556e617574686f72697a65643a206f6e6c79207468652067617465776179206360448201527f616e2063616c6c2074686973206d6574686f640000000000000000000000000060648201526084015b60405180910390fd5b7f000000000000000000000000000000000000000000000000000000000000000061ffff16856fffffffffffffffffffffffffffffffff1614610449576040517f08c379a000000000000000000000000000000000000000000000000000000000815260206004820152601460248201527f556e617574686f72697a6564206e6574776f726b00000000000000000000000060448201526064016103a1565b7f000000000000000000000000000000000000000000000000000000000000000073ffffffffffffffffffffffffffffffffffffffff16845f1c73ffffffffffffffffffffffffffffffffffffffff1614610500576040517f08c379a000000000000000000000000000000000000000000000000000000000815260206004820152601360248201527f556e617574686f72697a65642073656e6465720000000000000000000000000060448201526064016103a1565b5f61050d838501856110c0565b905061052181602001518260400151610cc9565b509495945050505050565b5f6105373383610d40565b60408051606080820183523380835273ffffffffffffffffffffffffffffffffffffffff8781166020808601918252948601888152865195860193909352518116848601529051838301528351808403909201825260808301938490527fa7ef4ebd00000000000000000000000000000000000000000000000000000000909352917f0000000000000000000000000000000000000000000000000000000000000000169063a7ef4ebd90610639907f0000000000000000000000000000000000000000000000000000000000000000907f000000000000000000000000000000000000000000000000000000000000000090620186a090879060840161114b565b6020604051808303815f875af1158015610655573d5f803e3d5ffd5b505050506040513d601f19601f820116820180604052508101906106799190611193565b9150505b92915050565b5f805461068f906111aa565b80601f01602080910402602001604051908101604052809291908181526020018280546106bb906111aa565b80156107065780601f106106dd57610100808354040283529160200191610706565b820191905f5260205f20905b8154815290600101906020018083116106e957829003601f168201915b505050505081565b335f81815260046020908152604080832073ffffffffffffffffffffffffffffffffffffffff8716808552925280832085905551919290917f8c5be1e5ebec7d5bd14f71427d1e84f3dd0314c0f7b2291e5b200ac8c7c3b925906107759086815260200190565b60405180910390a350600192915050565b73ffffffffffffffffffffffffffffffffffffffff83165f9081526004602090815260408083203384529091528120547fffffffffffffffffffffffffffffffffffffffffffffffffffffffffffffffff8114610818576107e78382611228565b73ffffffffffffffffffffffffffffffffffffffff86165f9081526004602090815260408083203384529091529020555b73ffffffffffffffffffffffffffffffffffffffff85165f908152600360205260408120805485929061084c908490611228565b909155505073ffffffffffffffffffffffffffffffffffffffff8085165f81815260036020526040908190208054870190555190918716907fddf252ad1be2c89b69c2b068fc378daa952ba7f163c4a11628f55a4df523b3ef906108b39087815260200190565b60405180910390a3506001949350505050565b5f7f000000000000000000000000000000000000000000000000000000000000000046146108fb576108f6610dcc565b905090565b507f000000000000000000000000000000000000000000000000000000000000000090565b6001805461068f906111aa565b335f9081526003602052604081208054839190839061094d908490611228565b909155505073ffffffffffffffffffffffffffffffffffffffff83165f81815260036020526040908190208054850190555133907fddf252ad1be2c89b69c2b068fc378daa952ba7f163c4a11628f55a4df523b3ef906107759086815260200190565b42841015610a1a576040517f08c379a000000000000000000000000000000000000000000000000000000000815260206004820152601760248201527f5045524d49545f444541444c494e455f4558504952454400000000000000000060448201526064016103a1565b5f6001610a256108c6565b73ffffffffffffffffffffffffffffffffffffffff8a81165f8181526005602090815260409182902080546001810190915582517f6e71edae12b1b97f4d1f60370fef10105fa2faae0126114a169c64845d6126c98184015280840194909452938d166060840152608083018c905260a083019390935260c08083018b90528151808403909101815260e0830190915280519201919091207f190100000000000000000000000000000000000000000000000000000000000061010083015261010282019290925261012281019190915261014201604080517fffffffffffffffffffffffffffffffffffffffffffffffffffffffffffffffe081840301815282825280516020918201205f84529083018083525260ff871690820152606081018590526080810184905260a0016020604051602081039080840390855afa158015610b73573d5f803e3d5ffd5b50506040517fffffffffffffffffffffffffffffffffffffffffffffffffffffffffffffffe0015191505073ffffffffffffffffffffffffffffffffffffffff811615801590610bee57508773ffffffffffffffffffffffffffffffffffffffff168173ffffffffffffffffffffffffffffffffffffffff16145b610c54576040517f08c379a000000000000000000000000000000000000000000000000000000000815260206004820152600e60248201527f494e56414c49445f5349474e455200000000000000000000000000000000000060448201526064016103a1565b73ffffffffffffffffffffffffffffffffffffffff9081165f9081526004602090815260408083208a8516808552908352928190208990555188815291928a16917f8c5be1e5ebec7d5bd14f71427d1e84f3dd0314c0f7b2291e5b200ac8c7c3b925910160405180910390a350505050505050565b8060025f828254610cda919061123b565b909155505073ffffffffffffffffffffffffffffffffffffffff82165f818152600360209081526040808320805486019055518481527fddf252ad1be2c89b69c2b068fc378daa952ba7f163c4a11628f55a4df523b3ef91015b60405180910390a35050565b73ffffffffffffffffffffffffffffffffffffffff82165f9081526003602052604081208054839290610d74908490611228565b90915550506002805482900390556040518181525f9073ffffffffffffffffffffffffffffffffffffffff8416907fddf252ad1be2c89b69c2b068fc378daa952ba7f163c4a11628f55a4df523b3ef90602001610d34565b5f7f8b73c3c69bb8fe3d512ecc4cf759cc79239f7b179b0ffacaa9a75d522b39400f5f604051610dfc919061124e565b6040805191829003822060208301939093528101919091527fc89efdaa54c0f20c7adf612882df0950f5a951637e0307cdcb4c672f298b8bc660608201524660808201523060a082015260c00160405160208183030381529060405280519060200120905090565b5f805f805f60808688031215610e78575f80fd5b8535945060208601356fffffffffffffffffffffffffffffffff81168114610e9e575f80fd5b935060408601359250606086013567ffffffffffffffff80821115610ec1575f80fd5b818801915088601f830112610ed4575f80fd5b813581811115610ee2575f80fd5b896020828501011115610ef3575f80fd5b9699959850939650602001949392505050565b803573ffffffffffffffffffffffffffffffffffffffff81168114610f29575f80fd5b919050565b5f8060408385031215610f3f575f80fd5b610f4883610f06565b946020939093013593505050565b5f81518084525f5b81811015610f7a57602081850181015186830182015201610f5e565b505f6020828601015260207fffffffffffffffffffffffffffffffffffffffffffffffffffffffffffffffe0601f83011685010191505092915050565b602081525f610fc96020830184610f56565b9392505050565b5f805f60608486031215610fe2575f80fd5b610feb84610f06565b9250610ff960208501610f06565b9150604084013590509250925092565b5f60208284031215611019575f80fd5b610fc982610f06565b5f805f805f805f60e0888a031215611038575f80fd5b61104188610f06565b965061104f60208901610f06565b95506040880135945060608801359350608088013560ff81168114611072575f80fd5b9699959850939692959460a0840135945060c09093013592915050565b5f80604083850312156110a0575f80fd5b6110a983610f06565b91506110b760208401610f06565b90509250929050565b5f606082840312156110d0575f80fd5b6040516060810181811067ffffffffffffffff82111715611118577f4e487b71000000000000000000000000000000000000000000000000000000005f52604160045260245ffd5b60405261112483610f06565b815261113260208401610f06565b6020820152604083013560408201528091505092915050565b73ffffffffffffffffffffffffffffffffffffffff8516815261ffff84166020820152826040820152608060608201525f6111896080830184610f56565b9695505050505050565b5f602082840312156111a3575f80fd5b5051919050565b600181811c908216806111be57607f821691505b6020821081036111f5577f4e487b71000000000000000000000000000000000000000000000000000000005f52602260045260245ffd5b50919050565b7f4e487b71000000000000000000000000000000000000000000000000000000005f52601160045260245ffd5b8181038181111561067d5761067d6111fb565b8082018082111561067d5761067d6111fb565b5f8083545f60018260011c9150600183168061126b57607f831692505b602080841082036112a3577f4e487b71000000000000000000000000000000000000000000000000000000005f52602260045260245ffd5b8180156112b757600181146112ea57611315565b7fffffffffffffffffffffffffffffffffffffffffffffffffffffffffffffff0086168952841515850289019650611315565b5f8a8152602090205f5b8681101561130d5781548b8201529085019083016112f4565b505084890196505b50949897505050505050505056fea264697066735822122004a23e5667f4627933f84238990ee7b13523a828bf8279ef07208a5248ecbdc864736f6c63430008180033","linkReferences":{}},"methodIdentifiers":{"DOMAIN_SEPARATOR()":"3644e515","allowance(address,address)":"dd62ed3e","approve(address,uint256)":"095ea7b3","balanceOf(address)":"70a08231","decimals()":"313ce567","name()":"06fdde03","nonces(address)":"7ecebe00","onGmpReceived(bytes32,uint128,bytes32,bytes)":"01900937","permit(address,address,uint256,uint256,uint8,bytes32,bytes32)":"d505accf","symbol()":"95d89b41","teleport(address,uint256)":"04ddf0a5","totalSupply()":"18160ddd","transfer(address,uint256)":"a9059cbb","transferFrom(address,address,uint256)":"23b872dd"},"id":39}