{"abi":[{"type":"constructor","inputs":[{"name":"network","type":"uint16","internalType":"uint16"},{"name":"proxy","type":"address","internalType":"address"}],"stateMutability":"payable"},{"type":"function","name":"DOMAIN_SEPARATOR","inputs":[],"outputs":[{"name":"","type":"bytes32","internalType":"bytes32"}],"stateMutability":"view"},{"type":"function","name":"deposit","inputs":[{"name":"source","type":"bytes32","internalType":"GmpSender"},{"name":"network","type":"uint16","internalType":"uint16"}],"outputs":[],"stateMutability":"payable"},{"type":"function","name":"depositOf","inputs":[{"name":"source","type":"bytes32","internalType":"GmpSender"},{"name":"network","type":"uint16","internalType":"uint16"}],"outputs":[{"name":"","type":"uint256","internalType":"uint256"}],"stateMutability":"view"},{"type":"function","name":"execute","inputs":[{"name":"signature","type":"tuple","internalType":"struct Signature","components":[{"name":"xCoord","type":"uint256","internalType":"uint256"},{"name":"e","type":"uint256","internalType":"uint256"},{"name":"s","type":"uint256","internalType":"uint256"}]},{"name":"message","type":"tuple","internalType":"struct GmpMessage","components":[{"name":"source","type":"bytes32","internalType":"GmpSender"},{"name":"srcNetwork","type":"uint16","internalType":"uint16"},{"name":"dest","type":"address","internalType":"address"},{"name":"destNetwork","type":"uint16","internalType":"uint16"},{"name":"gasLimit","type":"uint256","internalType":"uint256"},{"name":"salt","type":"uint256","internalType":"uint256"},{"name":"data","type":"bytes","internalType":"bytes"}]}],"outputs":[{"name":"status","type":"uint8","internalType":"enum GmpStatus"},{"name":"result","type":"bytes32","internalType":"bytes32"}],"stateMutability":"nonpayable"},{"type":"function","name":"gmpInfo","inputs":[{"name":"id","type":"bytes32","internalType":"bytes32"}],"outputs":[{"name":"","type":"tuple","internalType":"struct Gateway.GmpInfo","components":[{"name":"_gap","type":"uint184","internalType":"uint184"},{"name":"status","type":"uint8","internalType":"enum GmpStatus"},{"name":"blockNumber","type":"uint64","internalType":"uint64"},{"name":"result","type":"bytes32","internalType":"bytes32"}]}],"stateMutability":"view"},{"type":"function","name":"initialize","inputs":[{"name":"keys","type":"tuple[]","internalType":"struct TssKey[]","components":[{"name":"yParity","type":"uint8","internalType":"uint8"},{"name":"xCoord","type":"uint256","internalType":"uint256"}]},{"name":"networks","type":"tuple[]","internalType":"struct Network[]","components":[{"name":"id","type":"uint16","internalType":"uint16"},{"name":"gateway","type":"address","internalType":"address"}]}],"outputs":[],"stateMutability":"nonpayable"},{"type":"function","name":"keyInfo","inputs":[{"name":"id","type":"bytes32","internalType":"bytes32"}],"outputs":[{"name":"","type":"tuple","internalType":"struct Gateway.KeyInfo","components":[{"name":"_gap","type":"uint216","internalType":"uint216"},{"name":"status","type":"uint8","internalType":"uint8"},{"name":"nonce","type":"uint32","internalType":"uint32"}]}],"stateMutability":"view"},{"type":"function","name":"networkId","inputs":[],"outputs":[{"name":"","type":"uint16","internalType":"uint16"}],"stateMutability":"view"},{"type":"function","name":"prevMessageHash","inputs":[],"outputs":[{"name":"","type":"bytes32","internalType":"bytes32"}],"stateMutability":"view"},{"type":"function","name":"submitMessage","inputs":[{"name":"destinationAddress","type":"address","internalType":"address"},{"name":"destinationNetwork","type":"uint16","internalType":"uint16"},{"name":"executionGasLimit","type":"uint256","internalType":"uint256"},{"name":"data","type":"bytes","internalType":"bytes"}],"outputs":[{"name":"","type":"bytes32","internalType":"bytes32"}],"stateMutability":"payable"},{"type":"function","name":"updateKeys","inputs":[{"name":"signature","type":"tuple","internalType":"struct Signature","components":[{"name":"xCoord","type":"uint256","internalType":"uint256"},{"name":"e","type":"uint256","internalType":"uint256"},{"name":"s","type":"uint256","internalType":"uint256"}]},{"name":"message","type":"tuple","internalType":"struct UpdateKeysMessage","components":[{"name":"revoke","type":"tuple[]","internalType":"struct TssKey[]","components":[{"name":"yParity","type":"uint8","internalType":"uint8"},{"name":"xCoord","type":"uint256","internalType":"uint256"}]},{"name":"register","type":"tuple[]","internalType":"struct TssKey[]","components":[{"name":"yParity","type":"uint8","internalType":"uint8"},{"name":"xCoord","type":"uint256","internalType":"uint256"}]}]}],"outputs":[],"stateMutability":"nonpayable"},{"type":"event","name":"GmpCreated","inputs":[{"name":"id","type":"bytes32","indexed":true,"internalType":"bytes32"},{"name":"source","type":"bytes32","indexed":true,"internalType":"bytes32"},{"name":"destinationAddress","type":"address","indexed":true,"internalType":"address"},{"name":"destinationNetwork","type":"uint16","indexed":false,"internalType":"uint16"},{"name":"executionGasLimit","type":"uint256","indexed":false,"internalType":"uint256"},{"name":"salt","type":"uint256","indexed":false,"internalType":"uint256"},{"name":"data","type":"bytes","indexed":false,"internalType":"bytes"}],"anonymous":false},{"type":"event","name":"GmpExecuted","inputs":[{"name":"id","type":"bytes32","indexed":true,"internalType":"bytes32"},{"name":"source","type":"bytes32","indexed":true,"internalType":"GmpSender"},{"name":"dest","type":"address","indexed":true,"internalType":"address"},{"name":"status","type":"uint8","indexed":false,"internalType":"enum GmpStatus"},{"name":"result","type":"bytes32","indexed":false,"internalType":"bytes32"}],"anonymous":false},{"type":"event","name":"KeySetChanged","inputs":[{"name":"id","type":"bytes32","indexed":true,"internalType":"bytes32"},{"name":"revoked","type":"tuple[]","indexed":false,"internalType":"struct TssKey[]","components":[{"name":"yParity","type":"uint8","internalType":"uint8"},{"name":"xCoord","type":"uint256","internalType":"uint256"}]},{"name":"registered","type":"tuple[]","indexed":false,"internalType":"struct TssKey[]","components":[{"name":"yParity","type":"uint8","internalType":"uint8"},{"name":"xCoord","type":"uint256","internalType":"uint256"}]}],"anonymous":false},{"type":"event","name":"Upgraded","inputs":[{"name":"implementation","type":"address","indexed":true,"internalType":"address"}],"anonymous":false},{"type":"error","name":"InvalidCodeHash","inputs":[]},{"type":"error","name":"InvalidContract","inputs":[]}],"bytecode":{"object":"0x60e06040526040516200293c3803806200293c8339810160408190526200002691620000eb565b61ffff9190911660808181526001600160a01b0390921660a0818152604080517f8b73c3c69bb8fe3d512ecc4cf759cc79239f7b179b0ffacaa9a75d522b39400f6020808301919091527f9af41c8827b204ef75a7e66226328d17ead3ef661cad3235f0653f0d6fe6ae01828401527faa7cdbe2cce2ec7b606b0e199ddd9b264a6e645e767fb8479a7917dcd1b8693f606083015295810194909452838201929092528151808403909101815260c09283019091528051920191909120905262000137565b5f8060408385031215620000fd575f80fd5b825161ffff811681146200010f575f80fd5b60208401519092506001600160a01b03811681146200012c575f80fd5b809150509250929050565b60805160a05160c0516127bf6200017d5f395f818160ee0152818161034101526109e701525f6103ae01525f818161028f015281816106e701526108b301526127bf5ff3fe6080604052600436106100b8575f3560e01c80638d3f97a611610071578063b9d819841161004c578063b9d81984146102cc578063bdfbbea6146102f8578063d679294614610325575f80fd5b80638d3f97a6146101745780639025e64c1461027b578063a7ef4ebd146102b9575f80fd5b80634e9a2db5116100a15780634e9a2db5146101235780635814384d1461014257806379e293a814610161575f80fd5b80631498212f146100bc5780633644e515146100dd575b5f80fd5b3480156100c7575f80fd5b506100db6100d6366004612179565b61033a565b005b3480156100e8575f80fd5b506101107f000000000000000000000000000000000000000000000000000000000000000081565b6040519081526020015b60405180910390f35b34801561012e575f80fd5b5061011061013d36600461222e565b610388565b34801561014d575f80fd5b506100db61015c366004612258565b6103ac565b6100db61016f36600461222e565b610571565b34801561017f575f80fd5b5061023361018e3660046122ea565b60408051606080820183525f80835260208084018290529284018190529384528382529282902082519384018352547affffffffffffffffffffffffffffffffffffffffffffffffffffff811684527b01000000000000000000000000000000000000000000000000000000810460ff16918401919091527c0100000000000000000000000000000000000000000000000000000000900463ffffffff169082015290565b6040805182517affffffffffffffffffffffffffffffffffffffffffffffffffffff16815260208084015160ff16908201529181015163ffffffff169082015260600161011a565b348015610286575f80fd5b5060405161ffff7f000000000000000000000000000000000000000000000000000000000000000016815260200161011a565b6101106102c7366004612324565b61061f565b3480156102d7575f80fd5b506102eb6102e63660046122ea565b6107c7565b60405161011a9190612461565b348015610303575f80fd5b506103176103123660046124ba565b6108a8565b60405161011a92919061250c565b348015610330575f80fd5b5061011060045481565b5f610365827f0000000000000000000000000000000000000000000000000000000000000000610e8b565b90506103718382610eda565b61038381835f01518460200151611007565b505050565b5f82815260026020908152604080832061ffff851684529091529020545b92915050565b7f000000000000000000000000000000000000000000000000000000000000000073ffffffffffffffffffffffffffffffffffffffff163014610450576040517f08c379a000000000000000000000000000000000000000000000000000000000815260206004820152601c60248201527f6f6e6c792070726f78792063616e20626520696e697469616c697a650000000060448201526064015b60405180910390fd5b600454156104ba576040517f08c379a000000000000000000000000000000000000000000000000000000000815260206004820152601360248201527f616c726561647920696e697469616c697a6564000000000000000000000000006044820152606401610447565b7fffffffffffffffffffffffffffffffffffffffffffffffffffffffffffffffff6004556104e88282611058565b6104f18361118f565b604080515f808252602082019092528161052c565b604080518082019091525f80825260208201528152602001906001900390816105065790505b5090505f801b7f08280779918718ff44abb0d69be5f2219690cd1c4155aa887ba7c2423a921e65828660405161056392919061256f565b60405180910390a250505050565b61ffff81165f908152600360205260409020546105ea576040517f08c379a000000000000000000000000000000000000000000000000000000000815260206004820152601360248201527f756e737570706f72746564206e6574776f726b000000000000000000000000006044820152606401610447565b5f82815260026020908152604080832061ffff85168452909152812080543492906106169084906125c9565b90915550505050565b61ffff83165f9081526003602052604081205480610699576040517f08c379a000000000000000000000000000000000000000000000000000000000815260206004820152601360248201527f756e737570706f72746564206e6574776f726b000000000000000000000000006044820152606401610447565b5f333281141560a01b176004549091505f7fffffffffffffffffffffffffffffffffffffffffffffffffffffffffffffffff82148202821890505f6040518060e001604052808581526020017f000000000000000000000000000000000000000000000000000000000000000061ffff1681526020018b73ffffffffffffffffffffffffffffffffffffffff1681526020018a61ffff16815260200189815260200183815260200188815250905061075a85826114e990919063ffffffff16565b9250826004819055508973ffffffffffffffffffffffffffffffffffffffff1684847f0114885f90b5168242aa31b7afb9c2e9f88e90ce329c893d3e6c56021c4c03a58c8c878d6040516107b194939291906125dc565b60405180910390a4509098975050505050505050565b604080516080810182525f8082526020820181905291810182905260608101919091525f82815260016020908152604091829020825160808101909352805476ffffffffffffffffffffffffffffffffffffffffffffff81168452909183019077010000000000000000000000000000000000000000000000900460ff166003811115610856576108566123fb565b6003811115610867576108676123fb565b815281547801000000000000000000000000000000000000000000000000900467ffffffffffffffff16602082015260019091015460409091015292915050565b5f805f5a905061ffff7f0000000000000000000000000000000000000000000000000000000000000000166108e36080860160608701612660565b61ffff161461094e576040517f08c379a000000000000000000000000000000000000000000000000000000000815260206004820152601360248201527f696e76616c696420676d70206e6574776f726b000000000000000000000000006044820152606401610447565b5f6003816109626040880160208901612660565b61ffff1661ffff1681526020019081526020015f2054036109df576040517f08c379a000000000000000000000000000000000000000000000000000000000815260206004820152601b60248201527f736f75726365206e6574776f726b206e6f20737570706f7274656400000000006044820152606401610447565b5f80610a0b867f0000000000000000000000000000000000000000000000000000000000000000611588565b91509150610a198783610eda565b610a248287836116b0565b87355f9081526002602090815260408083209499509297509092918391610a4f918b01908b01612660565b61ffff1661ffff1681526020019081526020015f205490505f6129585a610a769087612679565b610d825f7f01010101010101010101010101010101010101010101010101010101010101015f80358060041c811790508060021c811790508060011c81179050828116905060208201915081358060041c811790508060021c811790508060011c8117905083811690508082019150602083019250823590508060041c811790508060021c811790508060011c8117905083811690508082019150602083019250823590508060041c811790508060021c811790508060011c8117905083811690508082019150602083019250823590508060041c811790508060021c811790508060011c8117905083811690508082019150602083019250823590508060041c811790508060021c811790508060011c8117905083811690508082019150602083019250823590508060041c811790508060021c811790508060011c8117905083811690508082019150602083019250823590508060041c811790508060021c811790508060011c8117905083811690508082019150602083019250823590508060041c811790508060021c811790508060011c8117905083811690508082019150602083019250823590508060041c811790508060021c811790508060011c8117905083811690508082019150602083019250823590508060041c811790508060021c811790508060011c8117905083811690508082019150602083019250823590508060041c811790508060021c811790508060011c8117905083811690508082019150602083019250823590508060041c811790508060021c811790508060011c8117905083811690508082019150602083019250823590508060041c811790508060021c811790508060011c8117905083811690508082019150602083019250823590508060041c811790508060021c811790508060011c8117905083811690508082019150508060801c810190508060401c810190508060201c810190508060101c8101905061ffff811690508060081c60ff82160190506010810260048236030201615208019350505050601f360160051c6003810281820260091c01820191505090565b610d8c91906125c9565b610d9691906125c9565b90505f610da33a8361268c565b905080831015610e0f576040517f08c379a000000000000000000000000000000000000000000000000000000000815260206004820152601860248201527f6465706f7369742062656c6f77206d617820726566756e6400000000000000006044820152606401610447565b610e198184612679565b89355f9081526002602090815260408083209291610e3b918e01908e01612660565b61ffff168152602081019190915260409081015f9081209290925551339183156108fc02918491818181858888f19350505050158015610e7d573d5f803e3d5ffd5b505050505050509250929050565b5f610ed382610e998561198f565b7f19010000000000000000000000000000000000000000000000000000000000005f90815260029290925260229081526042822091905290565b9392505050565b81355f90815260208190526040902080547b01000000000000000000000000000000000000000000000000000000900460ff811690600116610f78576040517f08c379a000000000000000000000000000000000000000000000000000000000815260206004820152601f60248201527f7368617264206b6579207265766f6b6564206f72206e6f7420657869737473006044820152606401610447565b601b60028216151560070218610f9a81863586602089013560408a0135611a02565b611000576040517f08c379a000000000000000000000000000000000000000000000000000000000815260206004820152601560248201527f696e76616c696420747373207369676e617475726500000000000000000000006044820152606401610447565b5050505050565b61101082611c3d565b6110198161118f565b827f08280779918718ff44abb0d69be5f2219690cd1c4155aa887ba7c2423a921e65838360405161104b92919061256f565b60405180910390a2505050565b5f5b818110156103835736838383818110611075576110756126a3565b60400291909101915061116290506110906020830183612660565b61ffff166110a460408401602085016126d0565b604080517f8b73c3c69bb8fe3d512ecc4cf759cc79239f7b179b0ffacaa9a75d522b39400f60208201527f9af41c8827b204ef75a7e66226328d17ead3ef661cad3235f0653f0d6fe6ae01918101919091527faa7cdbe2cce2ec7b606b0e199ddd9b264a6e645e767fb8479a7917dcd1b8693f60608201526080810183905273ffffffffffffffffffffffffffffffffffffffff821660a08201525f9060c00160405160208183030381529060405280519060200120905092915050565b60035f6111726020850185612660565b61ffff16815260208101919091526040015f20555060010161105a565b5f5b81518110156114e5575f8282815181106111ad576111ad6126a3565b602002602001015190505f6111c3826020015190565b5f8181526020819052604090208054919250907b01000000000000000000000000000000000000000000000000000000810460ff8116917c0100000000000000000000000000000000000000000000000000000000900463ffffffff1690600116156112b1576040517f08c379a000000000000000000000000000000000000000000000000000000000815260206004820152602560248201527f616c7265616479206163746976652c2063616e6e6f742072656769737465722060448201527f616761696e0000000000000000000000000000000000000000000000000000006064820152608401610447565b845160ff81166001821614611348576040517f08c379a000000000000000000000000000000000000000000000000000000000815260206004820152603260248201527f792070617269747920626974206d7573742062652030206f7220312c2063616e60448201527f6e6f7420726567697374657220736861726400000000000000000000000000006064820152608401610447565b8163ffffffff165f0361139b5783547bffffffffffffffffffffffffffffffffffffffffffffffffffffffff167c010000000000000000000000000000000000000000000000000000000017845561146c565b5f600284166113aa575f6113ad565b60015b90508160ff168160ff161461146a576040517f08c379a000000000000000000000000000000000000000000000000000000000815260206004820152605060248201527f7468652070726f766964656420792d70617269747920646f65736e2774206d6160448201527f74636820746865206578697374696e6720792d7061726974792c2063616e6e6f60648201527f7420726567697374657220736861726400000000000000000000000000000000608482015260a401610447565b505b60ff81161561148057600283179250611488565b600219831692505b505081547fffffffff00ffffffffffffffffffffffffffffffffffffffffffffffffffffff167b01000000000000000000000000000000000000000000000000000000600192831760ff1602179091559290920191506111919050565b5050565b60c082018051805160208201207fffffffffffffffffffffffffffffffffffffffffffffffffffffffffffffffe0850180517feb1e0a6b8c4db87ab3beb15e5ae24e7c880703e1b9ee466077096eaeba83623b82529184526101008120929093529091527f19010000000000000000000000000000000000000000000000000000000000005f9081526002839052602282815260428220919052610ed3565b5f6060368261159a60c08701876126e9565b9150915060405192507feb1e0a6b8c4db87ab3beb15e5ae24e7c880703e1b9ee466077096eaeba83623b60048401525f8601356024840152602086013560448401526040860135606484015260608601356084840152608086013560a484015260a086013560c484015280806101048501528083610124860137610124840181902060e4850190815261010060048601206119015f52602097885260409081526042601e2063019009376064880152601f9093017fffffffffffffffffffffffffffffffffffffffffffffffffffffffffffffffe090811660a481810160608a0190815260848a018790529a8c013590890152993560c4880152608090925260c39098011690930160a001909552509391925050565b5f838152600160205260408120819081815477010000000000000000000000000000000000000000000000900460ff1660038111156116f1576116f16123fb565b14611758576040517f08c379a000000000000000000000000000000000000000000000000000000000815260206004820152601860248201527f6d65737361676520616c726561647920657865637574656400000000000000006044820152606401610447565b805467ffffffffffffffff431678010000000000000000000000000000000000000000000000000276ffffffffffffffffffffffffffffffffffffffffffffff9091161777030000000000000000000000000000000000000000000000178155604080516020810182525f808252909181906117da9060608a01908a016126d0565b90505f6117e8600545612751565b6117f390600461268c565b90505f6118048a6080013583611f0d565b90505f6118175a61138880820391110290565b600681901c90039050818111611889576040517f08c379a000000000000000000000000000000000000000000000000000000000815260206004820152601f60248201527f676173206c6566742062656c6f77206d6573736167652e6761734c696d6974006044820152606401610447565b5060208901895160208782845f8988f1875199509550505083151560030260021860038111156118bb576118bb6123fb565b600187018890558654909850889087907fffffffffffffffff00ffffffffffffffffffffffffffffffffffffffffffffff1677010000000000000000000000000000000000000000000000836003811115611918576119186123fb565b021790555061192d60608b0160408c016126d0565b73ffffffffffffffffffffffffffffffffffffffff168a5f01358c7f5a2ed6cb95f9b76491faa9a7256da4fe110923506378201635ea3d9ae550d6d58b8b60405161197992919061250c565b60405180910390a4505050505050935093915050565b5f7f20196ac379740f17512afd999063959b8bfeee674b5db6c6c6f934a8fa3f10746119bd835f0151611f1c565b6119ca8460200151611f1c565b60408051602081019490945283019190915260608201526080015b604051602081830303815290604052805190602001209050919050565b5f807ffffffffffffffffffffffffffffffffebaaedce6af48a03bbfd25e8cd0364141868409611a52907ffffffffffffffffffffffffffffffffebaaedce6af48a03bbfd25e8cd0364141612679565b90505f7ffffffffffffffffffffffffffffffffebaaedce6af48a03bbfd25e8cd0364141878609611aa3907ffffffffffffffffffffffffffffffffebaaedce6af48a03bbfd25e8cd0364141612679565b9050815f03611ab0575f80fd5b604080515f8082526020820180845285905260ff8b1692820192909252606081018990526080810183905260019060a0016020604051602081039080840390855afa158015611b01573d5f803e3d5ffd5b50506040517fffffffffffffffffffffffffffffffffffffffffffffffffffffffffffffffe0015191505073ffffffffffffffffffffffffffffffffffffffff8116611ba9576040517f08c379a000000000000000000000000000000000000000000000000000000000815260206004820152601060248201527f65637265636f766572206661696c6564000000000000000000000000000000006044820152606401610447565b6040517fffffffffffffffffffffffffffffffffffffffff000000000000000000000000606083901b1660208201527fff0000000000000000000000000000000000000000000000000000000000000060f88b901b166034820152603581018990526055810188905260750160405160208183030381529060405280519060200120865f1b14935050505095945050505050565b5f5b81518110156114e5575f828281518110611c5b57611c5b6126a3565b602002602001015190505f611c71826020015190565b5f8181526020819052604090208054919250907c0100000000000000000000000000000000000000000000000000000000900463ffffffff16611d36576040517f08c379a000000000000000000000000000000000000000000000000000000000815260206004820152602760248201527f736861726420646f65736e2774206578697374732c2063616e6e6f742072657660448201527f6f6b65206b6579000000000000000000000000000000000000000000000000006064820152608401610447565b80547b010000000000000000000000000000000000000000000000000000009004600116611de6576040517f08c379a000000000000000000000000000000000000000000000000000000000815260206004820152602960248201527f63616e6e6f74207265766f6b652061207368617264206b657920616c7265616460448201527f79207265766f6b656400000000000000000000000000000000000000000000006064820152608401610447565b80545f907b010000000000000000000000000000000000000000000000000000009004600216611e16575f611e19565b60015b9050835f015160ff168160ff1614611eb3576040517f08c379a000000000000000000000000000000000000000000000000000000000815260206004820152602760248201527f696e76616c6964207920706172697479206269742c2063616e6e6f742072657660448201527f6f6b65206b6579000000000000000000000000000000000000000000000000006064820152608401610447565b5080547fffffffff00ffffffffffffffffffffffffffffffffffffffffffffffffffffff81167b010000000000000000000000000000000000000000000000000000009182900460fe169091021790555050600101611c3f565b5f828218828410028218610ed3565b5f8082516020611f2c919061268c565b67ffffffffffffffff811115611f4457611f44612027565b6040519080825280601f01601f191660200182016040528015611f6e576020820181803683370190505b509050805f5b8451811015611fb2575f611fa0868381518110611f9357611f936126a3565b6020026020010151611fc2565b60209390930192835250600101611f74565b5050805160209091012092915050565b80516020808301516040515f936119e5937f811c696df5f31d44fda354b9ceaa10237015e73b631a3eb69dbca953eac4a5009391920192835260ff919091166020830152604082015260600190565b5f60608284031215612021575f80fd5b50919050565b7f4e487b71000000000000000000000000000000000000000000000000000000005f52604160045260245ffd5b6040805190810167ffffffffffffffff8111828210171561207757612077612027565b60405290565b604051601f82017fffffffffffffffffffffffffffffffffffffffffffffffffffffffffffffffe016810167ffffffffffffffff811182821017156120c4576120c4612027565b604052919050565b5f82601f8301126120db575f80fd5b8135602067ffffffffffffffff8211156120f7576120f7612027565b612105818360051b0161207d565b82815260069290921b84018101918181019086841115612123575f80fd5b8286015b8481101561216e576040818903121561213e575f80fd5b612146612054565b813560ff81168114612156575f80fd5b81528185013585820152835291830191604001612127565b509695505050505050565b5f806080838503121561218a575f80fd5b6121948484612011565b9150606083013567ffffffffffffffff808211156121b0575f80fd5b90840190604082870312156121c3575f80fd5b6121cb612054565b8235828111156121d9575f80fd5b6121e5888286016120cc565b8252506020830135828111156121f9575f80fd5b612205888286016120cc565b6020830152508093505050509250929050565b803561ffff81168114612229575f80fd5b919050565b5f806040838503121561223f575f80fd5b8235915061224f60208401612218565b90509250929050565b5f805f6040848603121561226a575f80fd5b833567ffffffffffffffff80821115612281575f80fd5b61228d878388016120cc565b945060208601359150808211156122a2575f80fd5b818601915086601f8301126122b5575f80fd5b8135818111156122c3575f80fd5b8760208260061b85010111156122d7575f80fd5b6020830194508093505050509250925092565b5f602082840312156122fa575f80fd5b5035919050565b803573ffffffffffffffffffffffffffffffffffffffff81168114612229575f80fd5b5f805f8060808587031215612337575f80fd5b61234085612301565b9350602061234f818701612218565b935060408601359250606086013567ffffffffffffffff80821115612372575f80fd5b818801915088601f830112612385575f80fd5b81358181111561239757612397612027565b6123c7847fffffffffffffffffffffffffffffffffffffffffffffffffffffffffffffffe0601f8401160161207d565b915080825289848285010111156123dc575f80fd5b80848401858401375f8482840101525080935050505092959194509250565b7f4e487b71000000000000000000000000000000000000000000000000000000005f52602160045260245ffd5b6004811061245d577f4e487b71000000000000000000000000000000000000000000000000000000005f52602160045260245ffd5b9052565b815176ffffffffffffffffffffffffffffffffffffffffffffff168152602080830151608083019161249590840182612428565b5067ffffffffffffffff60408401511660408301526060830151606083015292915050565b5f80608083850312156124cb575f80fd5b6124d58484612011565b9150606083013567ffffffffffffffff8111156124f0575f80fd5b830160e08186031215612501575f80fd5b809150509250929050565b6040810161251a8285612428565b8260208301529392505050565b5f815180845260208085019450602084015f5b83811015612564578151805160ff168852830151838801526040909601959082019060010161253a565b509495945050505050565b604081525f6125816040830185612527565b82810360208401526125938185612527565b95945050505050565b7f4e487b71000000000000000000000000000000000000000000000000000000005f52601160045260245ffd5b808201808211156103a6576103a661259c565b61ffff851681525f60208560208401528460408401526080606084015283518060808501525f5b8181101561261f5785810183015185820160a001528201612603565b505f60a0828601015260a07fffffffffffffffffffffffffffffffffffffffffffffffffffffffffffffffe0601f8301168501019250505095945050505050565b5f60208284031215612670575f80fd5b610ed382612218565b818103818111156103a6576103a661259c565b80820281158282048414176103a6576103a661259c565b7f4e487b71000000000000000000000000000000000000000000000000000000005f52603260045260245ffd5b5f602082840312156126e0575f80fd5b610ed382612301565b5f8083357fffffffffffffffffffffffffffffffffffffffffffffffffffffffffffffffe184360301811261271c575f80fd5b83018035915067ffffffffffffffff821115612736575f80fd5b60200191503681900382131561274a575f80fd5b9250929050565b5f82612784577f4e487b71000000000000000000000000000000000000000000000000000000005f52601260045260245ffd5b50049056fea2646970667358221220359902a7be498bae54912fc1634bb6d9b3548db886882f42adb0fb99d794e06364736f6c63430008180033","linkReferences":{}},"methodIdentifiers":{"DOMAIN_SEPARATOR()":"3644e515","deposit(bytes32,uint16)":"79e293a8","depositOf(bytes32,uint16)":"4e9a2db5","execute((uint256,uint256,uint256),(bytes32,uint16,address,uint16,uint256,uint256,bytes))":"bdfbbea6","gmpInfo(bytes32)":"b9d81984","initialize((uint8,uint256)[],(uint16,address)[])":"5814384d","keyInfo(bytes32)":"8d3f97a6","networkId()":"9025e64c","prevMessageHash()":"d6792946","submitMessage(address,uint16,uint256,bytes)":"a7ef4ebd","updateKeys((uint256,uint256,uint256),((uint8,uint256)[],(uint8,uint256)[]))":"1498212f"},"id":27}