{"abi":[{"type":"function","name":"ecadd","inputs":[{"name":"x1","type":"uint256","internalType":"uint256"},{"name":"y1","type":"uint256","internalType":"uint256"},{"name":"x2","type":"uint256","internalType":"uint256"},{"name":"y2","type":"uint256","internalType":"uint256"}],"outputs":[{"name":"x3","type":"uint256","internalType":"uint256"},{"name":"y3","type":"uint256","internalType":"uint256"}],"stateMutability":"pure"}],"bytecode":{"object":"0x610607610035600b8282823980515f1a60731461002957634e487b7160e01b5f525f60045260245ffd5b305f52607381538281f3fe7300000000000000000000000000000000000000003014608060405260043610610034575f3560e01c8063bb8c256a14610038575b5f80fd5b61004b61004636600461050d565b610064565b6040805192835260208301919091520160405180910390f35b5f805f61007787876001888860016100df565b91945092509050610087816102ba565b90507ffffffffffffffffffffffffffffffffffffffffffffffffffffffffefffffc2f81840992507ffffffffffffffffffffffffffffffffffffffffffffffffffffffffefffffc2f81830991505094509492505050565b5f8080808080808c1580156100f257508b155b1561010957898989965096509650505050506102ae565b89158015610115575088155b1561012c578c8c8c965096509650505050506102ae565b898d14801561013a5750888c145b1561018d5761014b8d8c8f8e610375565b909450925061015e848460036001610375565b909450925061017084845f60016103cd565b90945092506101838c8c60026001610375565b90925090506101b0565b61019989898e8e610440565b90945092506101aa8a898f8e610440565b90925090505b6101bc848484846104b6565b90945092506101cd84848181610375565b90975091506101de87838f8e610440565b90975091506101ef87838c8b610440565b90975091506102008d8c8985610440565b909650905061021186828686610375565b909650905061022286828e8e610440565b90965090508181146102a5577ffffffffffffffffffffffffffffffffffffffffffffffffffffffffefffffc2f81880996507ffffffffffffffffffffffffffffffffffffffffffffffffffffffffefffffc2f82870995507ffffffffffffffffffffffffffffffffffffffffffffffffffffffffefffffc2f81830994506102a9565b8194505b505050505b96509650969350505050565b5f8060017ffffffffffffffffffffffffffffffffffffffffffffffffffffffffefffffc2f84835b811561036a576102f28284610569565b9050837ffffffffffffffffffffffffffffffffffffffffffffffffffffffffefffffc2f80868409610344907ffffffffffffffffffffffffffffffffffffffffffffffffffffffffefffffc2f6105a1565b870890955093508161035681836105ba565b61036090856105a1565b90935091506102e2565b509295945050505050565b5f807ffffffffffffffffffffffffffffffffffffffffffffffffffffffffefffffc2f8487097ffffffffffffffffffffffffffffffffffffffffffffffffffffffffefffffc2f5b8487099097909650945050505050565b5f807ffffffffffffffffffffffffffffffffffffffffffffffffffffffffefffffc2f808686097ffffffffffffffffffffffffffffffffffffffffffffffffffffffffefffffc2f5b888609087ffffffffffffffffffffffffffffffffffffffffffffffffffffffffefffffc2f6103bd565b5f807ffffffffffffffffffffffffffffffffffffffffffffffffffffffffefffffc2f808661048f877ffffffffffffffffffffffffffffffffffffffffffffffffffffffffefffffc2f6105a1565b097ffffffffffffffffffffffffffffffffffffffffffffffffffffffffefffffc2f610416565b5f807ffffffffffffffffffffffffffffffffffffffffffffffffffffffffefffffc2f8387097ffffffffffffffffffffffffffffffffffffffffffffffffffffffffefffffc2f8587099097909650945050505050565b5f805f8060808587031215610520575f80fd5b5050823594602084013594506040840135936060013592509050565b7f4e487b71000000000000000000000000000000000000000000000000000000005f52601160045260245ffd5b5f8261059c577f4e487b71000000000000000000000000000000000000000000000000000000005f52601260045260245ffd5b500490565b818103818111156105b4576105b461053c565b92915050565b80820281158282048414176105b4576105b461053c56fea2646970667358221220cac90508c859ae595672aa8d2db8791a21f49d0a2b546d65025e0698f5cd29aa64736f6c63430008180033","linkReferences":{}},"methodIdentifiers":{"ecadd(uint256,uint256,uint256,uint256)":"bb8c256a"},"id":23}